:0300000002000EED
:0C000E00787FE4F6D8FD758137020055BC
:100152001008C0F9A4B0999282F880908883C6A151
:10016200868E011B00011A01021C00000218000009
:030003000202C531
:1002C500C0E0C0D0C3E53494037480948050040525
:0B02D500348003753401D0D0D0E0323B
:03000B000201945B
:10019400C0E0C0F0C083C082C0D075D000C000C031
:1001A40001C002C003C004C005C006C00712024259
:1001B400D007D006D005D004D003D002D001D0009F
:0B01C400D0D0D082D083D0F0D0E03249
:10009A0012032CD2AFD2A9D2A81202A2E4FD7F0188
:1000AA001200FC7D017F0A1200FC7D027F321200E1
:1000BA00FC7D037F631200FC7FF47E011202FAE5E5
:1000CA003464017003120006E534640270031202FC
:1000DA00E0E53470EA7F031202777F01120277E4C7
:1000EA00FF1202777F021202777FE87E031202FA7A
:0200FA0080CDB7
:0E032C005389F0758A20758CD1C28DD28C2237
:0E033A0043890F758BA0758D15C28FD28E2250
:10024200758A20758CD10531E53170020530D39461
:10025200E8E5309403401D0536E53670020535E4C5
:10026200F530F531D3E5369533E53595324005E481
:05027200F535F5362210
:0F0172000134000235000002300000023200B4F8
:10018100042802040608042C0103050704200101C8
:0201910001016A
:1001CF00C2A1E4FEEEC3940874809480500FC2A2C3
:1001DF00EF3392A0EF25E0FFD2A20E80E7E4FEEE10
:1001EF00C3940874809480500FC2A2ED3392A0ED97
:0A01FF0025E0FDD2A20E80E7D2A198
:0102090022D2
:1002A2007D017F0C1201CFE4FD7F0F1201CF7DFF94
:1002B2007F091201CF7D077F0B1201CF7D047F0AD8
:0302C2000201CF67
:0400FC00AC07AB059D
:10010000ECF47008751E0F751F0F801EEC75F00A59
:100110008485F01EEC75F00A8475F00A84AFF0EF68
:1001200070067E0F7F0F80008F1F74282BF8E6FF6C
:10013000AD1E1201CF742C2BF8E6FFAD1F1201CFBC
:10014000ECF4700774242BF8E6F62274242BF8A63E
:0101500004AA
:01015100228B
:10020A007D017F011201CF7D027F021201CF7D03A2
:10021A007F031201CF7D047F041201CF7D057F0584
:10022A001201CF7D067F061201CF7D077F071201DB
:08023A00CF7D087F080201CF0F
:0100060022D7
:1002E000753703E5346402700EAF371202777FE88A
:0A02F0007E031202FA80EC020314F0
:10031400C28CC2A9758A20758CD1E4F530F531F50B
:0803240035F536D2A9D28C2276
:02027700AA07D4
:1002790074202AF8E66401700EAD027FFF1200FCBB
:1002890074202AF8E4F62274242AF8E6FFAD021253
:0802990000FC74202AF8760134
:0102A100223A
:1002FA00EF1FAA0670011E4A600FE4FDEDC3947851
:09030A007480948050EA0D80F328
:0103130022C7
:10001A0002009AE493A3F8E493A34003F68001F262
:10002A0008DFF48029E493A3F85407240CC8C333E7
:10003A00C4540F4420C8834004F456800146F6DFB6
:10004A00E4800B0102040810204080900152E47EF3
:10005A00019360BCA3FF543F30E509541FFEE493AB
:10006A00A360010ECF54C025E060A840B8E493A372
:10007A00FAE493A3F8E493A3C8C582C8CAC583CA9D
:10008A00F0A3C8C582C8CAC583CADFE9DEE780BE55
:01019300006B
:00000001FF
