:0300000002000EED
:0C000E00787FE4F6D8FD758123020055D0
:100172001008C0F9A4B0999282F880908883C6A131
:10018200868E011B00011A01021C000002180000E9
:1001C100EF1FAA0670011E4A600FE4FDEDC394788B
:0901D1007480948050EA0D80F363
:0101DA002202
:03000300020006F2
:0100060032C7
:03000B00020100EF
:10010000C0E0C0F0C083C082C0D075D000C000C0C5
:1001100001C002C003C004C005C006C00712013BF5
:10012000D007D006D005D004D003D002D001D00033
:0B013000D0D0D082D083D0F0D0E032DD
:10009A00E51A24FE60211460371460432403705566
:1000AA00D280D281C282C283D284D2857FD07E0797
:1000BA001201C1751A02227F2C7E011201C1B2817E
:1000CA00D282051BE51B640A702BF51B751A0322E5
:1000DA00D280C2857FD07E071201C1751A04227FA1
:1000EA002C7E011201C1B284D285051BE51B640A6C
:0600FA006003751A0122EB
:10019F001201DBD2AFD2A9D2A875A001E523651950
:1001AF007004E522651860F4852218852319C28032
:0201BF0080EAD4
:0E01DB005389F0758A20758CD1C28DD28C228A
:0E01E90043890F758BA0758D15C28FD28E22A3
:10013B00758A20758CD1051FE51F7002051ED3949F
:10014B00E8E51E9403401F0523E52370020522E416
:10015B00F51EF51FD3E5239521E52295204005E4F7
:07016B00F522F523B280220A
:0C01920002220000021E0000022000B447
:10001A0002019FE493A3F8E493A34003F68001F25C
:10002A0008DFF48029E493A3F85407240CC8C333E7
:10003A00C4540F4420C8834004F456800146F6DFB6
:10004A00E4800B0102040810204080900172E47ED3
:10005A00019360BCA3FF543F30E509541FFEE493AB
:10006A00A360010ECF54C025E060A840B8E493A372
:10007A00FAE493A3F8E493A3C8C582C8CAC583CA9D
:10008A00F0A3C8C582C8CAC583CADFE9DEE780BE55
:01019E000060
:00000001FF
