:0300000002018674
:0C018600787FE4F6D8FD7581460201CDBB
:0300030002057E75
:10057E00C0E0C0D0C2AFC3E54494037480948050F1
:0F058E000405448003754401D2AFD0D0D0E032D1
:03000B000203F3FA
:1003F300C0E0C0F0C083C082C0D075D000C000C0D0
:1004030001C002C003C004C005C006C007C2AF12CA
:100413000432D2AFD007D006D005D004D003D00227
:0F042300D001D000D0D0D082D083D0F0D0E03242
:030013000205EBF8
:1005EB00C0E0C2AFE5446404700575440180037537
:0705FB004404D2AFD0E0324E
:1003B000120638120536120366D2AFD2A9D2A8D2DD
:1003C00088D2AAD28A12055B7FF47E011205B9E5B4
:1003D00044640170031200DBE54464027003120000
:1003E00016E5447003754401E544640470E11202AB
:0303F0006D80DC41
:0E0638005389F0758A20758CD1C28DD28C2228
:10043200758A20758CD10541E54170020540D3943F
:100442002CE540940140230546E54670020545D25D
:1004520001D200D202E4F540F541D3E5469543E5E9
:0B0462004595424005E4F545F54622B3
:10059D000144020245000002400000024200B4C1C5
:0505AD0001C100C102C4
:1006020002040608010305070B090A080607050389
:0406120004020001DD
:0605B20004230101010118
:10036600E4F51AC3E51A940C74809480500BD203FA
:10037600AF1A120629051A80EA85302BE52B25319E
:10038600F52C25332534F52D25362537F52E7D011B
:10039600E4FF1202C5E4FD7F011202C5E4FD7F02FF
:0A03A6001202C5E4FD7F030202C548
:10046D00C2A1E4FEEEC3940874809480500FC2A222
:10047D00EF3392A0EF25E0FFD2A20E80E7E4FEEE6F
:10048D00C3940874809480500FC2A2ED3392A0EDF6
:0A049D0025E0FDD2A20E80E7D2A1F7
:0104A7002232
:10055B007D017F0C12046DE4FD7F0F12046D7DFF96
:10056B007F0912046D7D077F0B12046D7D047F0ADA
:03057B0002046D0A
:05021200F8E6FFAD1746
:04021700AC07AB0580
:10021B00ECF4700875210F75220F801EEC75F00A37
:10022B008485F021EC75F00A8475F00A84AFF0EF49
:10023B0070067E0F7F0F80008F22EB90060293FFDC
:10024B00AD2112046DEB90060693FFAD2212046DE7
:10025B00ECF47007743B2BF8E6F622743B2BF8A6F4
:01026B00048E
:01026C00226F
:1000DB00200103020185E4F517C3E517940474802E
:1000EB0094804003020183742B2517F816742B257B
:1000FB0017F8E6C3940574809480501F7427251756
:10010B00F8E664027015E51775F003A4240CF5826C
:10011B00E43406F583E493FF120616742B2517F8C7
:10012B00E6D3940074809480503D74272517F8E62D
:10013B00FF2401FDE433FCC3ED9403EC6480948055
:10014B0040067E007F008003EF04FF8F3FE51775AD
:10015B00F003A4242F2FF8E6FF742B2517F8A6071E
:10016B00AD3FAF171202C5742B2517F8E6FFAD177D
:0A017B0012021705170200E4C2018A
:010185002257
:10001600E4F517F518F519F517C3E5179404748078
:100026009480500BE4FDAF171202C5051780EAE570
:1000360044640260030200D5F517C3E517940474FF
:1000460080948050EAE544640270E4F519C3E5192A
:100056009403748094805067E54464027061E544BB
:10006600640270572092097F64FE1205B930924BE4
:10007600300014E51775F003A4242F251912021277
:10008600AF1712050BC2002090167F647E00120582
:10009600B920900CE51775F003A4242F2519F8064E
:1000A6002091BB7F647E001205B92091B1E51775DA
:1000B600F003A4242F2519F81680A30519808EE5D0
:1000C6001775F003A4242F1202120517020040121E
:0500D60005D3020366E2
:1005D300C28CC2A9758A20758CD1E4F540F541F52A
:0805E30045F546D2A9D28C2295
:02050B00AA073D
:10050D0074232AF8E66401700EAD027FFF12021704
:10051D0074232AF8E4F622743B2AF8E6FFAD0212A2
:08052D00021774232AF876017D
:0105350022A3
:1002C5008F1B8D1C74272FF8E6FFE51B75F003A423
:1002D500240AF582E43406F583E5822FF582E435B8
:1002E50083F583E493FFD203120629E51B75F0031A
:1002F500A4240AF582E43406F583E582251CF582FB
:10030500E43583F583E493FFC20312062974272598
:050315001BF8A61C22EC
:10026D00C202E4F517C3E517940474809480500B13
:10027D007D02AF171202C5051780EAE544640470CC
:10028D00343002F7F517C3E5179404748094805049
:10029D0020AD177FFF120217E51775F003A4240C8C
:1002AD00F582E43406F583E493FF120616051780F4
:0802BD00D5C20280C6020366EF
:10053600752F3C75310575300F75323C7534057570
:10054600330F75353C75370575360F75383C753A7A
:050556000575390F22BC
:1005B900EF1FAA0670011E4A600FE4FDEDC394788F
:0905C9007480948050EA0D80F367
:0105D2002206
:0404A800AB07AA06EE
:1004AC00D281D282E4FDEDC3941074809480501BF1
:1004BC00EAC4131313540124FF9280EB25E0FBEAEA
:1004CC0033FAC2810000D2810D80DBC2820000D2DF
:0104DC00829D
:0104DD0022FC
:0A031A00A6067B007A00790B7D0C2B
:060324008B1D8A1E891FDB
:10032A00E4F50AF508F509E50AC39D502AAB1DAAAA
:10033A001EA91F850A827583001204DE7E00A80AA0
:10034A00088005C333CE33CED8F92509F509EE3531
:0B035A0008F508050A80D0AE08AF09C6
:010365002275
:0F062900A203E433FE740B2FF812031A0204A885
:10061600740B2FF8E670047E0180027E0012031A26
:030626000204A823
:100192000203B0E493A3F8E493A34003F68001F2D0
:1001A20008DFF48029E493A3F85407240CC8C3336E
:1001B200C4540F4420C8834004F456800146F6DF3D
:1001C200E4800B010204081020408090059DE47E2B
:1001D200019360BCA3FF543F30E509541FFEE49332
:1001E200A360010ECF54C025E060A840B8E493A3F9
:1001F200FAE493A3F8E493A3C8C582C8CAC583CA24
:10020200F0A3C8C582C8CAC583CADFE9DEE780BEDB
:0105B8000042
:1004DE00BB010CE58229F582E5833AF583E02250D3
:1004EE0006E92582F8E622BBFE06E92582F8E2221D
:0D04FE00E58229F582E5833AF583E4932237
:00000001FF
