:0300000002000EED
:0C000E00787FE4F6D8FD75816F02005584
:10015C001021C0F9A4B0999282F880908883C6A12E
:10016C00868E0146000133011036000000000000AD
:10017C0000000000000000000000024700000231F7
:06018C0000000234000037
:0300030002039E57
:10039E00C0E0C0D0C3E56D94047480948050040511
:0B03AE006D8003756D01D0D0D0E032EF
:03000B0002020AE4
:10020A00C0E0C0F0C083C082C0D075D000C000C0BA
:10021A0001C002C003C004C005C006C0071202EE36
:10022A00D007D006D005D004D003D002D001D00028
:0B023A00D0D0D082D083D0F0D0E032D2
:10009A00120427D2AFD2A9D2A812037BE4FD7F01B2
:1000AA001201B47D017F0A1201B47D027F3212016E
:1000BA00B47D037F631201B4D2007F02120418D206
:1000CA00007F01120418C200E4FF1204187FF47EB4
:1000DA00011203D3E56D64017003120006E56D6435
:1000EA000270031203B9E56D70EA7F071204057FF7
:0800FA00F47E011203D380DC47
:0E0427005389F0758A20758CD1C28DD28C223B
:0E04350043890F758BA0758D15C28FD28E2254
:1002EE00758A20758CD1056AE56A70020569D3940A
:1002FE00E8E5699403401D056FE56F7002056EE435
:10030E00F569F56AD3E56F956CE56E956B4005E47E
:05031E00F56EF56F22F1
:0F019200016D00026E000002690000026B00B4F4
:1001A100041202040608041601030507040A0101EA
:0201B10001014A
:10024500C2A1E4FEEEC3940874809480500FC2A24C
:10025500EF3392A0EF25E0FFD2A20E80E7E4FEEE99
:10026500C3940874809480500FC2A2ED3392A0ED20
:0A02750025E0FDD2A20E80E7D2A121
:01027F00225C
:10037B007D017F0C120245E4FD7F0F1202457DFFCC
:10038B007F091202457D077F0B1202457D047F0A10
:03039B0002024516
:0401B400AC07AB05E4
:1001B800ECF4700875080F75090F801EEC75F00ACD
:1001C8008485F008EC75F00A8475F00A84AFF0EFC6
:1001D80070067E0F7F0F80008F0974122BF8E6FFE0
:1001E800AD0812024574162BF8E6FFAD0912024558
:1001F800ECF47007740E2BF8E6F622740E2BF8A6B2
:0102080004F1
:0102090022D2
:100280007D017F011202457D027F021202457D033E
:100290007F031202457D047F041202457D057F0520
:1002A0001202457D067F061202457D077F07120276
:0802B000457D087F08020245AC
:0100060022D7
:1003B900751A03E56D6402700EAF1A1203507FE8D7
:0A03C9007E031203D380EC0203ED63
:1003ED00C28CC2A9758A20758CD1E4F569F56AF5C0
:0803FD006EF56FD2A9D28C222B
:02035000AA07FA
:10035200740A2AF8E66401700EAD027FFF1201B43E
:10036200740A2AF8E4F622740E2AF8E6FFAD0212A5
:0803720001B4740A2AF87601B7
:01037A002260
:1003D300EF1FAA0670011E4A600FE4FDEDC3947877
:0903E3007480948050EA0D80F34F
:0103EC0022EE
:0402B800AB07AA06E0
:1002BC00D281D282E4FDEDC3941074809480501BE3
:1002CC00EAC4131313540124FF9280EB25E0FBEADC
:1002DC0033FAC2810000D2810D80DBC2820000D2D1
:0102EC00828F
:0102ED0022EE
:0A010200A6067B007A00794D7D0C03
:06010C008B1A8A1B891CFE
:10011200E4F549F54AF54BF54CEDFFC3E54A9FE599
:100122004994005030AB1AAA1BA91C854A82854902
:10013200831203237E00A84A088005C333CE33CE40
:10014200D8F9254CF54CEE354BF54B054AE54A708E
:09015200C8054980C4AE4BAF4C56
:01015B002281
:0F041800A200E433FE744D2FF81201020202B865
:10040500744D2FF8E670047E0180027E0012010211
:030415000202B828
:10001A0002009AE493A3F8E493A34003F68001F262
:10002A0008DFF48029E493A3F85407240CC8C333E7
:10003A00C4540F4420C8834004F456800146F6DFB6
:10004A00E4800B010204081020408090015CE47EE9
:10005A00019360BCA3FF543F30E509541FFEE493AB
:10006A00A360010ECF54C025E060A840B8E493A372
:10007A00FAE493A3F8E493A3C8C582C8CAC583CA9D
:10008A00F0A3C8C582C8CAC583CADFE9DEE780BE55
:0101B300004B
:10032300BB010CE58229F582E5833AF583E022508F
:1003330006E92582F8E622BBFE06E92582F8E222D9
:0D034300E58229F582E5833AF583E49322F3
:00000001FF
