:0300000002000EED
:0C000E00787FE4F6D8FD75813D020055B6
:0300030002038B6A
:10038B00C0E0C0D0C3E51B94047480948050040576
:0B039B001B8003751B01D0D0D0E032A6
:03000B000201DF10
:1001DF00C0E0C0F0C083C082C0D075D000C000C0E6
:1001EF0001C002C003C004C005C006C00712019EB3
:1001FF00D007D006D005D004D003D002D001D00054
:0B020F00D0D0D082D083D0F0D0E032FD
:10009A0012042A1202C3D2AFD2A9D2A812034CE484
:1000AA00FD7F011200FC7D017F0A1200FC7D027FA8
:1000BA00321200FC7D037F631200FCD2007F021221
:1000CA00041BD2007F0112041BC200E4FF12041BAE
:1000DA007FF47E011203C0E51B6401700312036FF3
:1000EA00E51B640270031203A6E51B70EA12036F94
:0200FA0080E59F
:0E042A005389F0758A20758CD1C28DD28C2238
:0E04380043890F758BA0758D15C28FD28E2251
:10019E00C2AF758A20758CD10518E5187002051747
:1001AE00D394E8E51794034025051DE51D7002055F
:1001BE001C152715281529152AE4F517F518D3E56A
:1001CE001D951AE51C95194005E4F51CF51DD2AFD9
:0101DE0022FE
:0F03F200011B00021C000002170000021900B4DA
:0804460002040608010305078A
:06040100042301010101CA
:1002C30075373C752F0A752B1475383C75300A75D4
:1002D3002C1475393C75310A752D14753A3C7532F9
:1002E3000A752E14852B27853828853A2A853929BE
:0102F30022E8
:10021A00C2A1E4FEEEC3940874809480500FC2A277
:10022A00EF3392A0EF25E0FFD2A20E80E7E4FEEEC4
:10023A00C3940874809480500FC2A2ED3392A0ED4B
:0A024A0025E0FDD2A20E80E7D2A14C
:010254002287
:10034C007D017F0C12021AE4FD7F0F12021A7DFF51
:10035C007F0912021A7D077F0B12021A7D047F0A95
:03036C0002021A70
:0400FC00AC07AB059D
:10010000ECF4700875210F75220F801EEC75F00A53
:100110008485F021EC75F00A8475F00A84AFF0EF65
:1001200070067E0F7F0F80008F22EB90044693FFB6
:10013000AD2112021AEB90044A93FFAD2212021A6B
:10014000ECF4700774332BF8E6F62274332BF8A620
:0101500004AA
:01015100228B
:100255007D017F0112021A7D027F0212021A7D03BF
:100265007F0312021A7D047F0412021A7D057F05A1
:1002750012021A7D067F0612021A7D077F071202F7
:080285001A7D087F0802021A2D
:10036F00E4FDAF271200FC7D01AF281200FC7D02D7
:0C037F00AF291200FC7D03AF2A0200FC35
:1003A600753B03E51B6402700EAF3B1203217FE829
:0A03B6007E031203C080EC0203DA9C
:1003DA00C28CC2A9758A20758CD1E4F517F518F577
:0803EA001CF51DD2A9D28C22E2
:02032100AA0729
:1003230074232AF8E66401700EAD027FFF1200FC0D
:1003330074232AF8E4F62274332AF8E6FFAD021296
:0803430000FC74232AF8760186
:01034B00228F
:1003C000EF1FAA0670011E4A600FE4FDEDC394788A
:0903D0007480948050EA0D80F362
:0103D9002201
:04028D00AB07AA060B
:10029100D281D282E4FDEDC3941074809480501B0E
:1002A100EAC4131313540124FF9280EB25E0FBEA07
:1002B10033FAC2810000D2810D80DBC2820000D2FC
:0102C10082BA
:0102C2002219
:0A015200A6067B007A00790B7D0CF5
:06015C008B3B8A3C893D4B
:10016200E4F50AF508F509E50AC39D502AAB3BAA56
:100172003CA93D850A827583001202F47E00A80A1A
:10018200088005C333CE33CED8F92509F509EE35FB
:0B01920008F508050A80D0AE08AF0990
:01019D00223F
:0F041B00A200E433FE740B2FF812015202028D7F
:10040800740B2FF8E670047E0180027E0012015200
:0304180002028D50
:10001A0002009AE493A3F8E493A34003F68001F262
:10002A0008DFF48029E493A3F85407240CC8C333E7
:10003A00C4540F4420C8834004F456800146F6DFB6
:10004A00E4800B01020408102040809003F2E47E51
:10005A00019360BCA3FF543F30E509541FFEE493AB
:10006A00A360010ECF54C025E060A840B8E493A372
:10007A00FAE493A3F8E493A3C8C582C8CAC583CA9D
:10008A00F0A3C8C582C8CAC583CADFE9DEE780BE55
:0104070000F4
:1002F400BB010CE58229F582E5833AF583E02250BF
:1003040006E92582F8E622BBFE06E92582F8E22208
:0D031400E58229F582E5833AF583E4932222
:00000001FF
