:0300000002000EED
:0C000E00787FE4F6D8FD758145020055AE
:03000300020449AB
:10044900C0E0C0D0C3E51B940474809480500405B7
:0B0459001B8003751B01D0D0D0E032E7
:03000B00020210DE
:10021000C0E0C0F0C083C082C0D075D000C000C0B4
:1002200001C002C003C004C005C006C00712024BD3
:10023000D007D006D005D004D003D002D001D00022
:0B024000D0D0D082D083D0F0D0E032CC
:10032F001204EA120109D2AFD2A9D2A81204097F8E
:10033F00F47E0112047EE51B6401700312009AE53E
:10034F001B64027003120464E51B70EA12009A80AA
:01035F00E5B8
:0E04EA005389F0758A20758CD1C28DD28C2278
:0E04F80043890F758BA0758D15C28FD28E2291
:10024B00C2AF758A20758CD10518E5187002051799
:10025B00D3942CE5179401401F051DE51D70020575
:10026B001CD200E4F517F518D3E51D951AE51C957E
:0B027B00194005E4F51CF51DD2AF2270
:10049800011B00021C000002170000021900B4C171
:0104A8000053
:080506000204060801030507C9
:0604A90004230101010122
:10010900E4F540C3E540940C74809480500BD2010F
:10011900AF401204DB054080EA753C3C75330A7533
:100129002F14753D3C75340A753014753E3C753590
:100139000A753114753F3C75360A753214852F2BB3
:10014900853D2C853F2E853E2D7D01E4FF1203E37D
:10015900E4FD7F011203E3E4FD7F021203E3E4FD02
:050169007F030203E327
:10028600C2A1E4FEEEC3940874809480500FC2A20B
:10029600EF3392A0EF25E0FFD2A20E80E7E4FEEE58
:1002A600C3940874809480500FC2A2ED3392A0EDDF
:0A02B60025E0FDD2A20E80E7D2A1E0
:0102C000221B
:100409007D017F0C120286E4FD7F0F1202867DFFBB
:100419007F091202867D077F0B1202867D047F0AFF
:0304290002028646
:04016E00AC07AB052A
:10017200ECF4700875210F75220F801EEC75F00AE1
:100182008485F021EC75F00A8475F00A84AFF0EFF3
:1001920070067E0F7F0F80008F22EB90050693FF83
:1001A200AD21120286EB90050A93FFAD2212028660
:1001B200ECF4700774372BF8E6F62274372BF8A6A6
:0101C2000438
:0101C3002219
:10042C00EF14600F1460082402700F743C80067483
:0D043C00338002742F2DF8E6FF227F00228E
:1002C1007D017F011202867D027F021202867D037B
:1002D1007F031202867D047F041202867D057F055D
:1002E1001202867D067F061202867D077F071202B3
:0802F100867D087F08020286E9
:10009A0030006BE4F540C3E54094047480948050CA
:1000AA005B742B2540F816742B2540F8E6D3940090
:1000BA0074809480503674272540F8E6FF2401FDA9
:1000CA00E433FCC3ED9403EC6480948040067E0024
:1000DA007F008003EF04FF8F3BAD4012042C742B8A
:1000EA002540F8A607AD3BAF401203E3742B254029
:0E00FA00F8E6FFAD4012016E0540809AC2008C
:0101080022D4
:10046400754003E51B6402700EAF4012038D7FE8F4
:0A0474007E0312047E80EC0204B047
:1004B000C28CC2A9758A20758CD1E4F517F518F5A0
:0804C0001CF51DD2A9D28C220B
:02038D00AA07BD
:10038F0074232AF8E66401700EAD027FFF12016E2E
:10039F0074232AF8E4F62274372AF8E6FFAD021226
:0803AF00016E74232AF87601A7
:0103B7002223
:1003E3008F418D4274272FF8E6FD1203B8D2011214
:1003F30004DBAD42AF411203B8C2011204DB742720
:060403002541F8A642228B
:1003B800E4FEEF601514600E14600714700EE4FE7E
:1003C800800A7E0380067E0680027E09ED6007248F
:0A03D800FE70050E80020E0EAF0647
:0103E20022F8
:10047E00EF1FAA0670011E4A600FE4FDEDC39478CB
:09048E007480948050EA0D80F3A3
:010497002242
:0402F900AB07AA069F
:1002FD00D281D282E4FDEDC3941074809480501BA2
:10030D00EAC4131313540124FF9280EB25E0FBEA9A
:10031D0033FAC2810000D2810D80DBC2820000D28F
:01032D00824D
:01032E0022AC
:0A01C400A6067B007A00790B7D0C83
:0601CE008B438A448945C1
:1001D400E4F50AF508F509E50AC39D502AAB43AADC
:1001E40044A945850A827583001203607E00A80A2B
:1001F400088005C333CE33CED8F92509F509EE3589
:0B02040008F508050A80D0AE08AF091D
:01020F0022CC
:0F04DB00A201E433FE740B2FF81201C40202F9E0
:1004C800740B2FF8E670047E0180027E001201C4CE
:0304D8000202F924
:10001A0002032FE493A3F8E493A34003F68001F2CA
:10002A0008DFF48029E493A3F85407240CC8C333E7
:10003A00C4540F4420C8834004F456800146F6DFB6
:10004A00E4800B0102040810204080900498E47EAA
:10005A00019360BCA3FF543F30E509541FFEE493AB
:10006A00A360010ECF54C025E060A840B8E493A372
:10007A00FAE493A3F8E493A3C8C582C8CAC583CA9D
:10008A00F0A3C8C582C8CAC583CADFE9DEE780BE55
:0104AF00004C
:10036000BB010CE58229F582E5833AF583E0225052
:1003700006E92582F8E622BBFE06E92582F8E2229C
:0D038000E58229F582E5833AF583E49322B6
:00000001FF
