:0300000002000EED
:0C000E00787FE4F6D8FD75816102005592
:1000F8001021C0F9A4B0999282F880908883C6A193
:10010800868E014600013301103600000000000011
:10011800000000000000000000000247000002315B
:060128000000023400009B
:0300030002038A6B
:10038A00C0E0C0D0C3E55F94037480948050040534
:0B039A005F8003755F01D0D0D0E0321F
:03000B000201F6F9
:1001F600C0E0C0F0C083C082C0D075D000C000C0CF
:1002060001C002C003C004C005C006C0071202DA5E
:10021600D007D006D005D004D003D002D001D0003C
:0B022600D0D0D082D083D0F0D0E032E6
:10009A001203F1D2AFD2A9D2A8120367E4FD7F01FD
:1000AA001201507D017F0A1201507D027F32120136
:1000BA00507D037F631201507541017FF47E011266
:1000CA0003BFE55F64017003120009E55F64027013
:1000DA00031203A5E55F70EA754101FB7A007936E0
:0E00EA007D101201A68E348F351202A480D430
:0E03F1005389F0758A20758CD1C28DD28C2272
:0E03FF0043890F758BA0758D15C28FD28E228B
:1002DA00758A20758CD1055CE55C7002055BD39448
:1002EA00E8E55B9403401D0561E56170020560E481
:1002FA00F55BF55CD3E561955EE560955D4005E4E7
:05030A00F560F5612221
:0F012E00015F0002600000025B0000025D00B490
:10013D00045302040608045701030507044B01018B
:02014D000101AE
:10023100C2A1E4FEEEC3940874809480500FC2A260
:10024100EF3392A0EF25E0FFD2A20E80E7E4FEEEAD
:10025100C3940874809480500FC2A2ED3392A0ED34
:0A02610025E0FDD2A20E80E7D2A135
:01026B002270
:100367007D017F0C120231E4FD7F0F1202317DFF08
:100377007F091202317D077F0B1202317D047F0A4C
:030387000202313E
:04015000AC07AB0548
:10015400ECF4700875490F754A0F801EEC75F00AAF
:100164008485F049EC75F00A8475F00A84AFF0EFE9
:1001740070067E0F7F0F80008F4A74532BF8E6FFC2
:10018400AD4912023174572BF8E6FFAD4A12023121
:10019400ECF47007744F2BF8E6F622744F2BF8A694
:0101A4000456
:0101A5002237
:10026C007D017F011202317D027F021202317D037A
:10027C007F031202317D047F041202317D057F055C
:10028C001202317D067F061202317D077F071202B2
:08029C00317D087F08020231E8
:0100090022D4
:1003A500751C03E55F6402700EAF1C12033C7FE809
:0A03B5007E031203BF80EC0203D99F
:1003D900C28CC2A9758A20758CD1E4F55BF55CF5F0
:0803E90060F561D2A9D28C225B
:02033C00AA070E
:10033E00744B2AF8E66401700EAD027FFF12015075
:10034E00744B2AF8E4F622744F2AF8E6FFAD021237
:08035E000150744B2AF87601EE
:010366002274
:1003BF00EF1FAA0670011E4A600FE4FDEDC394788B
:0903CF007480948050EA0D80F363
:0103D8002202
:0402A400AB07AA06F4
:1002A800D281D282E4FDEDC3941074809480501BF7
:1002B800EAC4131313540124FF9280EB25E0FBEAF0
:1002C80033FAC2810000D2810D80DBC2820000D2E5
:0102D80082A3
:0102D9002202
:0601A6008B1C8A1D891E5E
:1001AC00E4F508F509F50AF50BEDFFC3E5099FE544
:1001BC000894005030AB1CAA1DA91E850982850825
:1001CC008312030F7E00A809088005C333CE33CEFB
:1001DC00D8F9250BF50BEE350AF50A0509E509707A
:0901EC00C8050880C4AE0AAF0B7F
:0101F50022E7
:030006008F1F2227
:10001A0002009AE493A3F8E493A34003F68001F262
:10002A0008DFF48029E493A3F85407240CC8C333E7
:10003A00C4540F4420C8834004F456800146F6DFB6
:10004A00E4800B01020408102040809000F8E47E4E
:10005A00019360BCA3FF543F30E509541FFEE493AB
:10006A00A360010ECF54C025E060A840B8E493A372
:10007A00FAE493A3F8E493A3C8C582C8CAC583CA9D
:10008A00F0A3C8C582C8CAC583CADFE9DEE780BE55
:01014F0000AF
:10030F00BB010CE58229F582E5833AF583E02250A3
:10031F0006E92582F8E622BBFE06E92582F8E222ED
:0D032F00E58229F582E5833AF583E4932207
:00000001FF
