:0300000002000EED
:0C000E00787FE4F6D8FD75817302005580
:100105001021C0F9A4B0999282F880908883C6A185
:10011500868E014600013301103600000000000004
:10012500000000000000000000000247000002314E
:060135000000023400008E
:030003000203CB2A
:1003CB00C0E0C0D0C3E571940474809480500405E0
:0B03DB00718003757101D0D0D0E032BA
:03000B000202509E
:10025000C0E0C0F0C083C082C0D075D000C000C074
:1002600001C002C003C004C005C006C007120213CB
:10027000D007D006D005D004D003D002D001D000E2
:0B028000D0D0D082D083D0F0D0E0328C
:10009A00120454D2AFD2A9D2A812038C756B3C7544
:1000AA006C1E756E1E756D3CE4FD7F011201BD7DEF
:1000BA00017F0A1201BD7D027F321201BD7D037FDD
:1000CA00631201BDD2007F02120445D2007F0112E1
:1000DA000445C200E4FF1204457FF47E01120400C5
:1000EA00E571640170031203AFE5716402700312D3
:0B00FA0003E6E57170EA1203AF80E539
:0E0454005389F0758A20758CD1C28DD28C220E
:0E04620043890F758BA0758D15C28FD28E2227
:10021300758A20758CD1056AE56A70020569D394E5
:10022300E8E569940340250573E5737002057215CB
:100233006B156C156D156EE4F569F56AD3E5739569
:0D02430070E572956F4005E4F572F57322C9
:10013B000171000272000002690000026F00B4043A
:05014B006B0000000044
:10015000041202040608041601030507040A01013B
:0201600001019B
:10028B00C2A1E4FEEEC3940874809480500FC2A206
:10029B00EF3392A0EF25E0FFD2A20E80E7E4FEEE53
:1002AB00C3940874809480500FC2A2ED3392A0EDDA
:0A02BB0025E0FDD2A20E80E7D2A1DB
:0102C5002216
:10038C007D017F0C12028BE4FD7F0F12028B7DFF2F
:10039C007F0912028B7D077F0B12028B7D047F0A73
:0303AC0002028BBF
:0401BD00AC07AB05DB
:1001C100ECF4700875080F75090F801EEC75F00AC4
:1001D1008485F008EC75F00A8475F00A84AFF0EFBD
:1001E10070067E0F7F0F80008F0974122BF8E6FFD7
:1001F100AD0812028B74162BF8E6FFAD0912028BC3
:10020100ECF47007740E2BF8E6F622740E2BF8A6A8
:0102110004E8
:0102120022C9
:1002C6007D017F0112028B7D027F0212028B7D036C
:1002D6007F0312028B7D047F0412028B7D057F054E
:1002E60012028B7D067F0612028B7D077F071202A4
:0802F6008B7D087F0802028BDA
:1003AF00E4FDAF6B1201BD7D01AF6C1201BD7D028B
:0C03BF00AF6D1201BD7D03AF6E0201BDE9
:1003E600751A03E5716402700EAF1A1203617FE895
:0A03F6007E0312040080EC02041ADA
:10041A00C28CC2A9758A20758CD1E4F569F56AF592
:08042A0072F573D2A9D28C22F5
:02036100AA07E9
:10036300740A2AF8E66401700EAD027FFF1201BD24
:10037300740A2AF8E4F622740E2AF8E6FFAD021294
:0803830001BD740A2AF876019D
:01038B00224F
:10040000EF1FAA0670011E4A600FE4FDEDC3947849
:090410007480948050EA0D80F321
:0104190022C0
:0402FE00AB07AA069A
:10030200D281D282E4FDEDC3941074809480501B9C
:10031200EAC4131313540124FF9280EB25E0FBEA95
:1003220033FAC2810000D2810D80DBC2820000D28A
:010332008248
:0103330022A7
:0A016300A6067B007A00794D7D0CA2
:06016D008B1A8A1B891C9D
:10017300E4F549F54AF54BF54CEDFFC3E54A9FE538
:100183004994005030AB1AAA1BA91C854A828549A1
:10019300831203347E00A84A088005C333CE33CECE
:1001A300D8F9254CF54CEE354BF54B054AE54A702D
:0901B300C8054980C4AE4BAF4CF5
:0101BC002220
:0F044500A200E433FE744D2FF81201630202FE91
:10043200744D2FF8E670047E0180027E0012016383
:030442000202FEB5
:10001A0002009AE493A3F8E493A34003F68001F262
:10002A0008DFF48029E493A3F85407240CC8C333E7
:10003A00C4540F4420C8834004F456800146F6DFB6
:10004A00E4800B0102040810204080900105E47E40
:10005A00019360BCA3FF543F30E509541FFEE493AB
:10006A00A360010ECF54C025E060A840B8E493A372
:10007A00FAE493A3F8E493A3C8C582C8CAC583CA9D
:10008A00F0A3C8C582C8CAC583CADFE9DEE780BE55
:01016200009C
:10033400BB010CE58229F582E5833AF583E022507E
:1003440006E92582F8E622BBFE06E92582F8E222C8
:0D035400E58229F582E5833AF583E49322E2
:00000001FF
