:0300000002000EED
:0C000E00787FE4F6D8FD758133020055C0
:100234001008C0F9A4B0999282F880908883C6A16E
:10024400868E011B00011A01021C00000218000026
:030003000202ED09
:1002ED00C0E0C0D0C3E53094037480948050040501
:0B02FD00308003753001D0D0D0E0321B
:03000B0002018669
:10018600C0E0C0F0C083C082C0D075D000C000C03F
:1001960001C002C003C004C005C006C00712026A3F
:1001A600D007D006D005D004D003D002D001D000AD
:0B01B600D0D0D082D083D0F0D0E03257
:10012400120354D2AFD2A9D2A81202CAE4FD7F01AD
:1001340012009A7D017F0A12009A7D027F3212001A
:100144009A7D037F6312009A7FF47E01120322E5F5
:100154003064017003120006E53064027003120378
:1001640008E53070EA7F0312029F7F0112029FE4C8
:10017400FF12029F7F0212029F7FE87E0312032276
:0201840080CD2C
:0E0354005389F0758A20758CD1C28DD28C220F
:0E03620043890F758BA0758D15C28FD28E2228
:10026A00758A20758CD1052DE52D7002052CD39445
:10027A00E8E52C9403401D0532E53270020531E4AD
:10028A00F52CF52DD3E532952FE531952E4005E471
:05029A00F531F53222F0
:0F02540001300002310000022C0000022E00B425
:060263000420010101016D
:1001C100C2A1E4FEEEC3940874809480500FC2A2D1
:1001D100EF3392A0EF25E0FFD2A20E80E7E4FEEE1E
:1001E100C3940874809480500FC2A2ED3392A0EDA5
:0A01F10025E0FDD2A20E80E7D2A1A6
:0101FB0022E1
:1002CA007D017F0C1201C1E4FD7F0F1201C17DFF88
:1002DA007F091201C17D077F0B1201C17D047F0ACC
:0302EA000201C14D
:04009A00AC05AB07FF
:10009E00EBF47008751E0F751F0F801EEB75F00ABE
:1000AE008485F01EEB75F00A8475F00A84AFF0EFCC
:1000BE0070067E0F7F0F80008F1FEC700EAD1E7FBF
:1000CE00021201C1AD1F7F011201C1EC6401700E5D
:1000DE00AD1E7F041201C1AD1F7F031201C1EC647E
:1000EE0002700EAD1E7F061201C1AD1F7F051201FB
:1000FE00C1EC6403700EAD1E7F081201C1AD1F7FEF
:10010E00071201C1EBF4700774242CF8E6F6227482
:05011E00242CF8A603EB
:0101230022B9
:1001FC007D017F011201C17D027F021201C17D03CD
:10020C007F031201C17D047F041201C17D057F05AE
:10021C001201C17D067F061201C17D077F07120105
:08022C00C17D087F080201C139
:0100060022D7
:10030800753303E5306402700EAF3312029F7FE845
:0A0318007E0312032280EC02033C76
:10033C00C28CC2A9758A20758CD1E4F52CF52DF5EB
:08034C0031F532D2A9D28C2256
:02029F00AA07AC
:1002A10074202AF8E66401700EAD027FFF12009AF5
:1002B10074202AF8E4F62274242AF8E6FFAD02122B
:0802C100009A74202AF876016E
:0102C9002212
:10032200EF1FAA0670011E4A600FE4FDEDC3947828
:090332007480948050EA0D80F300
:01033B00229F
:10001A00020124E493A3F8E493A34003F68001F2D7
:10002A0008DFF48029E493A3F85407240CC8C333E7
:10003A00C4540F4420C8834004F456800146F6DFB6
:10004A00E4800B0102040810204080900234E47E10
:10005A00019360BCA3FF543F30E509541FFEE493AB
:10006A00A360010ECF54C025E060A840B8E493A372
:10007A00FAE493A3F8E493A3C8C582C8CAC583CA9D
:10008A00F0A3C8C582C8CAC583CADFE9DEE780BE55
:010269000094
:00000001FF
