:0300000002000EED
:0C000E00787FE4F6D8FD758126020055CD
:1001A1001008C0F9A4B0999282F880908883C6A102
:1001B100868E011B00011A01021C000002180000BA
:10020F00EF1FAA0670011E4A600FE4FDEDC394783C
:09021F007480948050EA0D80F314
:0102280022B3
:030003000201F403
:1001F400C0E0C0D0C3E52294037480948050040509
:0B020400228003752201D0D0D0E03230
:03000B000200F6FA
:1000F600C0E0C0F0C083C082C0D075D000C000C0D0
:1001060001C002C003C004C005C006C00712016CCE
:10011600D007D006D005D004D003D002D001D0003D
:0B012600D0D0D082D083D0F0D0E032E7
:10009A00120229D2AFD2A9D2A81201D1E522640153
:1000AA007003120000E52264027003120000E522C8
:1000BA0070EA7D017F011201317D027F0212013156
:1000CA007D037F031201317D047F041201317D0516
:1000DA007F051201317D067F061201317D077F07F8
:0C00EA001201317D087F0812013180B046
:0E0229005389F0758A20758CD1C28DD28C223B
:0E02370043890F758BA0758D15C28FD28E2254
:10016C00758A20758CD1051FE51F7002051ED3946E
:10017C00E8E51E9403401D0524E52470020523E4E4
:10018C00F51EF51FD3E5249521E52395204005E4C4
:05019C00F523F524220B
:0F01C10001220002230000021E0000022000B4F1
:10013100C2A1E4FEEEC3940874809480500FC2A261
:10014100EF3392A0EF25E0FFD2A20E80E7E4FEEEAE
:10015100C3940874809480500FC2A2ED3392A0ED35
:0A01610025E0FDD2A20E80E7D2A136
:01016B002271
:1001D1007D017F0C120131E4FD7F0F1201317DFFA2
:1001E1007F091201317D077F0B1201317D047F0AE6
:0301F100020131D7
:050006008F258D26226C
:10001A0002009AE493A3F8E493A34003F68001F262
:10002A0008DFF48029E493A3F85407240CC8C333E7
:10003A00C4540F4420C8834004F456800146F6DFB6
:10004A00E4800B01020408102040809001A1E47EA4
:10005A00019360BCA3FF543F30E509541FFEE493AB
:10006A00A360010ECF54C025E060A840B8E493A372
:10007A00FAE493A3F8E493A3C8C582C8CAC583CA9D
:10008A00F0A3C8C582C8CAC583CADFE9DEE780BE55
:0101D000002E
:00000001FF
