:0300000002000EED
:0C000E00787FE4F6D8FD758151020055A2
:1000F0001008C0F9A4B0999282F880908883C6A1B4
:10010000868E012700011A010C1B0001000100016D
:0E01100001000001000102280000021800009A
:0300030002036392
:10036300C0E0C0D0C3E54A94037480948050040570
:0B0373004A8003754A01D0D0D0E03270
:03000B000201D619
:1001D600C0E0C0F0C083C082C0D075D000C000C0EF
:1001E60001C002C003C004C005C006C007120284D5
:1001F600D007D006D005D004D003D002D001D0005D
:0B020600D0D0D082D083D0F0D0E03206
:100140001203CAD2AFD2A9D2A8120340E4FD7F01A4
:1001500012009A7D017F0A12009A7D027F321200FE
:100160009A7D037F6312009A7FF47E01120398E563
:100170004A64017003120006E54A64027003120328
:0C0180007EE54A70EA7FAA1202B980E313
:0E03CA005389F0758A20758CD1C28DD28C2299
:0E03D80043890F758BA0758D15C28FD28E22B2
:10028400758A20758CD10547E54770020546D394DD
:10029400E8E5469403401D054CE54C7002054BE42B
:1002A400F546F547D3E54C9549E54B95484005E4BB
:0502B400F54BF54C22A2
:0F011E00014A00024B000002460000024800B4F4
:10012D00043402040608043801030507042C0101F8
:02013D000101BE
:10021100C2A1E4FEEEC3940874809480500FC2A280
:10022100EF3392A0EF25E0FFD2A20E80E7E4FEEECD
:10023100C3940874809480500FC2A2ED3392A0ED54
:0A02410025E0FDD2A20E80E7D2A155
:01024B002290
:100340007D017F0C120211E4FD7F0F1202117DFF6F
:100350007F091202117D077F0B1202117D047F0AB3
:0303600002021185
:04009A00AC07AB05FF
:10009E00ECF47008752A0F752B0F801EEC75F00AA4
:1000AE008485F02AEC75F00A8475F00A84AFF0EFBF
:1000BE0070067E0F7F0F80008F2B74342BF8E6FFB7
:1000CE00AD2A12021174382BF8E6FFAD2B12021175
:1000DE00ECF4700774302BF8E6F62274302BF8A689
:0100EE00040D
:0100EF0022EE
:10024C007D017F011202117D027F021202117D03DA
:10025C007F031202117D047F041202117D057F05BC
:10026C001202117D067F061202117D077F07120212
:08027C00117D087F0802021148
:0100060022D7
:10037E00755103E54A6402700EAF511203157FE802
:0A038E007E0312039880EC0203B214
:1003B200C28CC2A9758A20758CD1E4F546F547F541
:0803C2004BF54CD2A9D28C22AC
:02031500AA0735
:10031700742C2AF8E66401700EAD027FFF12009A72
:10032700742C2AF8E4F62274302AF8E6FFAD02129C
:08033700009A742C2AF87601EB
:01033F00229B
:10039800EF1FAA0670011E4A600FE4FDEDC39478B2
:0903A8007480948050EA0D80F38A
:0103B1002229
:04018C008F3C8B3EDB
:10019000E4F544F545F544F545C3E5459543E544A7
:1001A00095425025AB3FAA40A941854582854483AD
:1001B0001202E85401F53CE4FD1203F27D011D0535
:1001C00045E54570D4054480D0E4F53E1203F27550
:0501D0003E01E4F53ED4
:0101D5002207
:0503F200007F2FDFFE7B
:0103F70022E3
:1002B900D281D282E4FEEEC39408748094805018EF
:1002C900EFC4131313540124FF9280EF25E0FFC2FA
:0E02D900810000D2810E80DEC2820000D2823F
:0102E70022F4
:0C03E6008B4D8A4E894F8D50E4FEFF22A3
:10001A00020140E493A3F8E493A34003F68001F2BB
:10002A0008DFF48029E493A3F85407240CC8C333E7
:10003A00C4540F4420C8834004F456800146F6DFB6
:10004A00E4800B01020408102040809000F0E47E56
:10005A00019360BCA3FF543F30E509541FFEE493AB
:10006A00A360010ECF54C025E060A840B8E493A372
:10007A00FAE493A3F8E493A3C8C582C8CAC583CA9D
:10008A00F0A3C8C582C8CAC583CADFE9DEE780BE55
:01013F0000BF
:1002E800BB010CE58229F582E5833AF583E02250CB
:1002F80006E92582F8E622BBFE06E92582F8E22215
:0D030800E58229F582E5833AF583E493222E
:00000001FF
