:030000000200A754
:0C00A700787FE4F6D8FD75814B0200EE76
:0300030002050EE5
:10050E00C0E0C0D0C2AFC3E5449404748094805060
:0F051E000405448003754401D2AFD0D0D0E03241
:03000B000202DE10
:1002DE00C0E0C0F0C083C082C0D075D000C000C0E6
:1002EE0001C002C003C004C005C006C007C2AF12E1
:1002FE000397D2AFD007D006D005D004D003D002DA
:0F030E00D001D000D0D0D082D083D0F0D0E03258
:10043E001205B8120133D2AFD2A9D2A81204EB7FA3
:10044E00F47E01120564E5446401700312000EE5AA
:10045E004464027003120241E54470EA12000E80F9
:01046E00E5A8
:0E05B8005389F0758A20758CD1C28DD28C22A9
:0E05C60043890F758BA0758D15C28FD28E22C2
:10039700758A20758CD10541E54170020540D394DB
:1003A7002CE540940140210546E54670020545D2FB
:1003B70004D203E4F540F541D3E5469543E5459579
:0903C700424005E4F545F546222B
:10054A000144000245000002400000024200B4C11A
:03055A0004C103D6
:0805D4000204060801030507FB
:06055D000423010101016D
:10013300E4F51AC3E51A940C74809480500BD2052D
:10014300AF1A1205A9051A80EA753C3C753305758B
:100153002F0F753D3C75340575300F753E3C753575
:100163000575310F753F3C75360575320F752B0FCD
:10017300752C14752D28752E3C7D01E4FF1204C5E2
:10018300E4FD7F011204C5E4FD7F021204C5E4FD12
:050193007F030204C51A
:10035C00C2A1E4FEEEC3940874809480500FC2A234
:10036C00EF3392A0EF25E0FFD2A20E80E7E4FEEE81
:10037C00C3940874809480500FC2A2ED3392A0ED08
:0A038C0025E0FDD2A20E80E7D2A109
:010396002244
:1004EB007D017F0C12035CE4FD7F0F12035C7DFF2B
:1004FB007F0912035C7D077F0B12035C7D047F0A6F
:03050B0002035C8C
:04019800AC07AB0500
:10019C00ECF4700875210F75220F801EEC75F00AB7
:1001AC008485F021EC75F00A8475F00A84AFF0EFC9
:1001BC0070067E0F7F0F80008F22EB9005D493FF8B
:1001CC00AD2112035CEB9005D893FFAD2212035CBA
:1001DC00ECF4700774372BF8E6F62274372BF8A67C
:0101EC00040E
:0101ED0022EF
:10052D00EF14600F1460082402700F743C80067481
:0D053D00338002742F2DF8E6FF227F00228C
:1003D0007D017F0112035C7D027F0212035C7D03BD
:1003E0007F0312035C7D047F0412035C7D057F059F
:1003F00012035C7D067F0612035C7D077F071203F4
:080400005C7D087F0802035C2B
:10000E002004030200A6E4F517C3E51794047480D8
:10001E00948040030200A4742B2517F816742B2528
:10002E0017F8E6C39405748094805014742725172E
:10003E00F8E66402700A7D02AF1712049A12059652
:10004E00742B2517F8E6D394007480948050367480
:10005E00272517F8E6FF2401FDE433FCC3ED9403D6
:10006E00EC6480948040067E007F008003EF04FFE6
:10007E008F3BAD1712052D742B2517F8A607AD3B38
:10008E00AF171204C5742B2517F8E6FFAD17120132
:08009E00980517020017C204C7
:0100A6002237
:10024100751703E4F518F519F517C3E51794047448
:10025100809480500BE4FDAF171204C5051780EAA6
:10026100E4F517C3E5179404748094805019E544AC
:100271006402700F300407AF1712046FC20420B07C
:10028100ED80EB051780DC12057E12013375440108
:01029100224A
:10057E00C28CC2A9758A20758CD1E4F540F541F57F
:08058E0045F546D2A9D28C22EA
:02046F00AA07DA
:1004710074232AF8E66401700EAD027FFF12019821
:1004810074232AF8E4F62274372AF8E6FFAD021243
:08049100019874232AF876019A
:010499002240
:1004C5008F1B8D1C74272FF8E6FD12049AD2051296
:1004D50005A9AD1CAF1B12049AC2051205A9742704
:0604E500251BF8A61C22F5
:10049A00E4FEEF601514600E14600714700EE4FE9B
:1004AA00800A7E0380067E0680027E09ED600724AC
:0A04BA00FE70050E80020E0EAF0664
:0104C4002215
:10056400EF1FAA0670011E4A600FE4FDEDC39478E4
:090574007480948050EA0D80F3BC
:01057D00225B
:0401EE008E478F4861
:1001F200A2009201A2019202E5481548AE477002A0
:1002020015474E602EE4FCECC394787480948050C1
:10021200E720001C7F327E00120564A2003001013B
:10022200B3500DAB49AA4AA94BE412034AA20022D9
:0E0232000C80D4AB49AA4AA94B740112034AAE
:01024000229B
:04040800AB07AA068E
:10040C00D281D282E4FDEDC3941074809480501B91
:10041C00EAC4131313540124FF9280EB25E0FBEA8A
:10042C0033FAC2810000D2810D80DBC2820000D27F
:01043C00823D
:01043D00229C
:0A029200A6067B007A00790B7D0CB4
:06029C008B1D8A1E891F64
:1002A200E4F50AF508F509E50AC39D502AAB1DAA33
:1002B2001EA91F850A8275830012031D7E00A80AEB
:1002C200088005C333CE33CED8F92509F509EE35BA
:0B02D20008F508050A80D0AE08AF094F
:0102DD0022FE
:0F05A900A205E433FE740B2FF81202920204082D
:10059600740B2FF8E670047E0180027E0012029230
:0305A60002040844
:1000B30002043EE493A3F8E493A34003F68001F221
:1000C30008DFF48029E493A3F85407240CC8C3334E
:1000D300C4540F4420C8834004F456800146F6DF1D
:1000E300E4800B010204081020408090054AE47E5E
:1000F300019360BCA3FF543F30E509541FFEE49312
:10010300A360010ECF54C025E060A840B8E493A3D8
:10011300FAE493A3F8E493A3C8C582C8CAC583CA03
:10012300F0A3C8C582C8CAC583CADFE9DEE780BEBB
:010563000097
:10031D00BB010CE58229F582E5833AF583E0225095
:10032D0006E92582F8E622BBFE06E92582F8E222DF
:0D033D00E58229F582E5833AF583E49322F9
:10034A00BB010689828A83F0225002F722BBFE0192
:02035A00F3228C
:00000001FF
