:0300000002017783
:0C017700787FE4F6D8FD75814B0201BED4
:030003000205AC47
:1005AC00C0E0C0D0C2AF20B212C3E5449404748042
:1005BC009480500405448003754401D2AFD0D0D050
:0205CC00E0321B
:03000B00020349A4
:10034900C0E0C0F0C083C082C0D075D000C000C07A
:1003590001C002C003C004C005C006C007C2AF1275
:100369000441D2AFD007D006D005D004D003D002C3
:0F037900D001D000D0D0D082D083D0F0D0E032ED
:1003880012063C1205641202FFD2AFD2A9D2A8D23B
:10039800881205897FF47E011205E8E5446401703E
:1003A800031200D7E5446402700312000EE544709E
:0F03B8000312000EE544640370E112000680DCBE
:0E063C005389F0758A20758CD1C28DD28C2224
:0E064A0043890F758BA0758D15C28FD28E223D
:10044100758A20758CD10541E54170020540D39430
:100451002CE540940140210546E54670020545D250
:1004610004D203E4F540F541D3E5469543E54595CE
:09047100424005E4F545F5462280
:1005CE000144020245000002400000024200B4C194
:0305DE0004C10352
:08065800020406080103050776
:0605E100042301010101E9
:1002FF00E4F51AC3E51A940C74809480500BD20560
:10030F00AF1A12062D051A80EA85302BE52B253101
:10031F00F52C25332534F52D25362537F52E7D0182
:10032F00E4FF12053EE4FD7F0112053EE4FD7F026E
:0A033F0012053EE4FD7F0302053EB7
:10040600C2A1E4FEEEC3940874809480500FC2A289
:10041600EF3392A0EF25E0FFD2A20E80E7E4FEEED6
:10042600C3940874809480500FC2A2ED3392A0ED5D
:0A04360025E0FDD2A20E80E7D2A15E
:010440002299
:100589007D017F0C120406E4FD7F0F1204067DFF36
:100599007F091204067D077F0B1204067D047F0A7A
:0305A90002040643
:05020300F8E6FFAD1755
:04020800AC07AB058F
:10020C00ECF4700875210F75220F801EEC75F00A46
:10021C008485F021EC75F00A8475F00A84AFF0EF58
:10022C0070067E0F7F0F80008F22EB90065893FF95
:10023C00AD21120406EB90065C93FFAD221204066E
:10024C00ECF47007743B2BF8E6F622743B2BF8A603
:01025C00049D
:01025D00227E
:10047A007D017F011204067D027F021204067D03BC
:10048A007F031204067D047F041204067D057F059E
:10049A001204067D067F061204067D077F071204F2
:0804AA00067D087F080204062C
:1000D700200403020176E4F517C3E517940474803E
:1000E70094804003020174742B2517F816742B258E
:1000F70017F8E6C394057480948050147427251765
:10010700F8E66402700A7D02AF1712051312061A89
:10011700742B2517F8E6D3940074809480503D74AF
:10012700272517F8E6FF2401FDE433FCC3ED94030C
:10013700EC6480948040067E007F008003EF04FF1C
:100147008F3FE51775F003A4242F2FF8E6FF742BD4
:100157002517F8A607AD3FAF1712053E742B2517D5
:0F016700F8E6FFAD1712020805170200E0C20408
:010176002266
:10000E00E4F517F518F519F517C3E5179404748080
:10001E009480500BE4FDAF1712053E051780EAE5FC
:10002E0044640260030200CDF517C3E5179404740F
:10003E0080948050EAE544640270E4F519C3E51932
:10004E009403748094805067E54464027061E544C3
:10005E00640270572092097F64FE1205E830924BBD
:10006E00300314E51775F003A4242F25191202038B
:10007E00AF171204E8C2032090167F647E001205AB
:10008E00E820900CE51775F003A4242F2519F80627
:10009E002091BB7F647E001205E82091B1E51775B3
:1000AE00F003A4242F2519F81680A30519808EE5D8
:1000BE001775F003A4242F1202030517020038123D
:0800CE0006021202FF75440155
:0100D6002207
:10060200C28CC2A9758A20758CD1E4F540F541F5FA
:0806120045F546D2A9D28C2265
:0204E800AA0761
:1004EA0074232AF8E66401700EAD027FFF12020837
:1004FA0074232AF8E4F622743B2AF8E6FFAD0212C6
:08050A00020874232AF87601AF
:0105120022C6
:10053E008F1B8D1C74272FF8E6FD120513D20512A2
:10054E00062DAD1CAF1B120513C20512062D742706
:06055E00251BF8A61C227B
:10051300E4FEEF601514600E14600714700EE4FE21
:10052300800A7E0380067E0680027E09ED60072432
:0A053300FE70050E80020E0EAF06EA
:01053D00229B
:0100060022D7
:10056400752F3C75310575300F75323C7534057542
:10057400330F75353C75370575360F75383C753A4C
:050584000575390F228E
:1005E800EF1FAA0670011E4A600FE4FDEDC3947860
:0905F8007480948050EA0D80F338
:0106010022D6
:04025E008E478F48F0
:10026200A2009201A2019202E5481548AE4770022F
:1002720015474E602EE4FCECC39478748094805051
:10028200E720001C7F327E001205E8A20030010147
:10029200B3500DAB49AA4AA94BE41203F4A20022BF
:1002A2000C80D4AB49AA4AA94B74011203F4A201EF
:0102B2002229
:0404B200AB07AA06E4
:1004B600D281D282E4FDEDC3941074809480501BE7
:1004C600EAC4131313540124FF9280EB25E0FBEAE0
:1004D60033FAC2810000D2810D80DBC2820000D2D5
:0104E6008293
:0104E70022F2
:0A02B300A6067B007A00790B7D0C93
:0602BD008B1D8A1E891F43
:1002C300E4F50AF508F509E50AC39D502AAB1DAA12
:1002D3001EA91F850A827583001203C77E00A80A20
:1002E300088005C333CE33CED8F92509F509EE3599
:0B02F30008F508050A80D0AE08AF092E
:0102FE0022DD
:0F062D00A205E433FE740B2FF81202B30204B2DD
:10061A00740B2FF8E670047E0180027E001202B38A
:03062A000204B215
:10018300020388E493A3F8E493A34003F68001F207
:1001930008DFF48029E493A3F85407240CC8C3337D
:1001A300C4540F4420C8834004F456800146F6DF4C
:1001B300E4800B01020408102040809005CEE47E09
:1001C300019360BCA3FF543F30E509541FFEE49341
:1001D300A360010ECF54C025E060A840B8E493A308
:1001E300FAE493A3F8E493A3C8C582C8CAC583CA33
:1001F300F0A3C8C582C8CAC583CADFE9DEE780BEEB
:0105E7000013
:1003C700BB010CE58229F582E5833AF583E02250EB
:1003D70006E92582F8E622BBFE06E92582F8E22235
:0D03E700E58229F582E5833AF583E493224F
:1003F400BB010689828A83F0225002F722BBFE01E8
:02040400F322E1
:00000001FF
