:030000000200AE4D
:0C00AE00787FE4F6D8FD75814B0200F568
:03000300020515DE
:10051500C0E0C0D0C2AFC3E5449404748094805059
:0F0525000405448003754401D2AFD0D0D0E0323A
:03000B000202E509
:1002E500C0E0C0F0C083C082C0D075D000C000C0DF
:1002F50001C002C003C004C005C006C007C2AF12DA
:10030500039ED2AFD007D006D005D004D003D002CB
:0F031500D001D000D0D0D082D083D0F0D0E03251
:100445001205A212013AD2AFD2A9D2A81204F27FA4
:10045500F47E0112054EE5446401700312000EE5B9
:100465004464027003120248E54470EA12000E80EB
:01047500E5A1
:0E05A2005389F0758A20758CD1C28DD28C22BF
:0E05B00043890F758BA0758D15C28FD28E22D8
:10039E00758A20758CD10541E54170020540D394D4
:1003AE002CE540940140210546E54670020545D2F4
:1003BE0004D203E4F540F541D3E5469543E5459572
:0903CE00424005E4F545F5462224
:100534000144000245000002400000024200B4C130
:0305440004C103EC
:0805BE00020406080103050711
:0605470004230101010183
:10013A00E4F51AC3E51A940C74809480500BD20526
:10014A00AF1A120593051A80EA752F3C75310575A9
:10015A00300F75323C75340575330F75353C75377C
:10016A000575360F75383C753A0575390F752B0FBD
:10017A00752C14752D28752E3C7D01E4FF1204CCD4
:10018A00E4FD7F011204CCE4FD7F021204CCE4FDFD
:05019A007F030204CC0C
:10036300C2A1E4FEEEC3940874809480500FC2A22D
:10037300EF3392A0EF25E0FFD2A20E80E7E4FEEE7A
:10038300C3940874809480500FC2A2ED3392A0ED01
:0A03930025E0FDD2A20E80E7D2A102
:01039D00223D
:1004F2007D017F0C120363E4FD7F0F1203637DFF16
:100502007F091203637D077F0B1203637D047F0A59
:030512000203637E
:04019F00AC07AB05F9
:1001A300ECF4700875210F75220F801EEC75F00AB0
:1001B3008485F021EC75F00A8475F00A84AFF0EFC2
:1001C30070067E0F7F0F80008F22EB9005BE93FF9A
:1001D300AD21120363EB9005C293FFAD22120363BB
:1001E300ECF47007743B2BF8E6F622743B2BF8A66D
:0101F3000407
:0101F40022E8
:1003D7007D017F011203637D027F021203637D03A8
:1003E7007F031203637D047F041203637D057F058A
:1003F7001203637D067F061203637D077F071203DF
:08040700637D087F0802036316
:10000E002004030200ADE4F517C3E51794047480D1
:10001E00948040030200AB742B2517F816742B2521
:10002E0017F8E6C39405748094805014742725172E
:10003E00F8E66402700A7D02AF171204A112058061
:10004E00742B2517F8E6D3940074809480503D7479
:10005E00272517F8E6FF2401FDE433FCC3ED9403D6
:10006E00EC6480948040067E007F008003EF04FFE6
:10007E008F3FE51775F003A4242F2FF8E6FF742B9E
:10008E002517F8A607AD3FAF171204CC742B251712
:0F009E00F8E6FFAD1712019F0517020017C20405
:0100AD002230
:10024800751703E4F518F519F517C3E51794047441
:10025800809480500BE4FDAF171204CC051780EA98
:10026800E4F517C3E5179404748094805019E544A5
:100278006402700F300407AF17120476C20420B06E
:10028800ED80EB051780DC12056812013A75440110
:010298002243
:10056800C28CC2A9758A20758CD1E4F540F541F595
:0805780045F546D2A9D28C2200
:02047600AA07D3
:1004780074232AF8E66401700EAD027FFF12019F13
:1004880074232AF8E4F622743B2AF8E6FFAD021238
:08049800019F74232AF876018C
:0104A0002239
:1004CC008F1B8D1C74272FF8E6FD1204A1D2051288
:1004DC000593AD1CAF1B1204A1C205120593742722
:0604EC00251BF8A61C22EE
:1004A100E4FEEF601514600E14600714700EE4FE94
:1004B100800A7E0380067E0680027E09ED600724A5
:0A04C100FE70050E80020E0EAF065D
:0104CB00220E
:10054E00EF1FAA0670011E4A600FE4FDEDC39478FA
:09055E007480948050EA0D80F3D2
:010567002271
:0401F5008E478F485A
:1001F900A2009201A2019202E5481548AE47700299
:1002090015474E602EE4FCECC394787480948050BA
:10021900E720001C7F327E0012054EA2003001014A
:10022900B3500DAB49AA4AA94BE4120351A20022CB
:0E0239000C80D4AB49AA4AA94B7401120351A0
:010247002294
:04040F00AB07AA0687
:10041300D281D282E4FDEDC3941074809480501B8A
:10042300EAC4131313540124FF9280EB25E0FBEA83
:1004330033FAC2810000D2810D80DBC2820000D278
:010443008236
:010444002295
:0A029900A6067B007A00790B7D0CAD
:0602A3008B1D8A1E891F5D
:1002A900E4F50AF508F509E50AC39D502AAB1DAA2C
:1002B9001EA91F850A827583001203247E00A80ADD
:1002C900088005C333CE33CED8F92509F509EE35B3
:0B02D90008F508050A80D0AE08AF0948
:0102E40022F7
:0F059300A205E433FE740B2FF812029902040F35
:10058000740B2FF8E670047E0180027E001202993F
:0305900002040F53
:1000BA00020445E493A3F8E493A34003F68001F213
:1000CA0008DFF48029E493A3F85407240CC8C33347
:1000DA00C4540F4420C8834004F456800146F6DF16
:1000EA00E4800B0102040810204080900534E47E6D
:1000FA00019360BCA3FF543F30E509541FFEE4930B
:10010A00A360010ECF54C025E060A840B8E493A3D1
:10011A00FAE493A3F8E493A3C8C582C8CAC583CAFC
:10012A00F0A3C8C582C8CAC583CADFE9DEE780BEB4
:01054D0000AD
:10032400BB010CE58229F582E5833AF583E022508E
:1003340006E92582F8E622BBFE06E92582F8E222D8
:0D034400E58229F582E5833AF583E49322F2
:10035100BB010689828A83F0225002F722BBFE018B
:02036100F32285
:00000001FF
